S01B000041544D65676131365F54696D6572305F4354432E73726563CA
S11300000C942A000C9434000C9434000C943400A6
S11300100C9434000C9434000C9434000C9434008C
S11300200C9434000C9434000C9434000C9434007C
S11300300C9434000C9434000C9434000C9434006C
S11300400C9434000C9434000C9434000C94470049
S11300500C94340011241FBECFE5D4E0DEBFCDBF25
S11300600E9436000C9459000C94000081B3806403
S113007081BB83B78D6083BF83B78D7F83BF12BE7F
S11300808CED8CBF89B7826089BF7894FFCF1F92B3
S11300900F920FB60F9211248F939F9392B380E423
S11300A0892782BB9F918F910F900FBE0F901F9055
S10900B01895F894FFCF3F
S9030000FC
